:100000000C945A000C949B0C0C94A10C0C9477004B
:100010000C9477000C9477000C94DC0C0C94770013
:100020000C9477000C9477000C9477000C94770074
:100030000C9477000C9477000C9477000C94770064
:100040000C9477000C9477000C9477000C94770054
:100050000C9477000C9477000C9477000C94770044
:100060000C9477000C9477000C9477000C94770034
:100070000C9477000C9477000C9477000C94770024
:100080000C9477000C9477000C9477000C94770014
:100090000C9477000C9477000C9477000C94770004
:1000A0000C9477000C9477000C9477000C947700F4
:1000B0000C94770011241FBECFEFD8E0DEBFCDBF78
:1000C00011E0A0E0B1E0EEE2F6E202C005900D9290
:1000D000A437B107D9F725E0A4E7B1E001C01D922C
:1000E000A43AB207E1F70E943C0D0C9415130C944E
:1000F00000001092C5008CE08093C40088E18093DA
:10010000C10086E08093C2000895E0ECF0E09081A9
:1001100095FFFDCF8093C60008950F931F93CF9353
:10012000DF93082F192F611549F0E801060F111D03
:1001300089910E948500C017D107D1F7DF91CF9137
:100140001F910F910895CF93DF93C82FD92F8881E6
:10015000811531F021960E94850089918111FBCF94
:10016000DF91CF9108954F925F926F927F928F921D
:100170009F92AF92BF92CF92DF92EF92FF920F9336
:100180001F93CF93DF93C82ED92EE62EF72E442E41
:10019000552E8BE50E948500E114F104A9F1712C24
:1001A000812C912C00E011E06894662464F8C4E787
:1001B000D1E0570181E0A81AB10806C07394872CDA
:1001C000912C7E141F0400F5F601E80DF91D208125
:1001D0001F922F931F930F931F926F92DF93CF93D2
:1001E0000E941C10CE010E94A3008DB79EB70896F6
:1001F0000FB6F8949EBF0FBE8DBF8A149B04F0F615
:100200008CE20E948500DACF8DE50E94850083E0B4
:1002100091E00E94A300842D952D0E94A300DF9100
:10022000CF911F910F91FF90EF90DF90CF90BF90F3
:10023000AF909F908F907F906F905F904F900895B8
:10024000CF93DF93CDB7DEB7EDE5F5E08D81808309
:100250008E8181838F81828388858383898584834E
:1002600048E051E065E070E0CF010E94B3006D818D
:10027000CE010A960E948D008AE00E9485006D8161
:1002800070E04FE151E0CE010A960E94B300DF9189
:10029000CF910895CF93C82F81E00E94EA078C2F59
:1002A0000E94F1078FEF90E00E94FB07C82F80E0CB
:1002B0000E94EA078C2FCF910895CF93DF93D82F18
:1002C000C62F81E00E94EA078D2F80680E94F10707
:1002D0008C2F0E94F107C82F80E00E94EA078C2F24
:1002E000DF91CF910895FF920F931F93CF93DF93E8
:1002F000082FC62FD72F142F81E00E94EA07802FE6
:1003000080680E94F107F82E0FEF010F111569F0B8
:1003100010E00F5F1F4F0C0F1D1FFE012196808103
:100320000E94F107C017D107C1F780E00E94EA07D9
:100330008F2DDF91CF911F910F91FF900895CF9254
:10034000DF92EF92FF920F931F93CF93DF93062FCD
:1003500010929101611509F442C0C82FD92F40E0D5
:1003600050E0BA0110E0CC24CA94DC2CEC2CF12C27
:100370002991DB01CA01880F991FAA1FBB1F880F93
:10038000991FAA1FBB1F880F991FAA1FBB1F880F89
:10039000991FAA1FBB1F880F991FAA1FBB1F841B71
:1003A000950BA60BB70BBC01CD01620F711D811D12
:1003B000911DA70196010E94DF0FAB01BC011F5FD9
:1003C000109391011013D4CFCB01BA01DF91CF91DB
:1003D0001F910F91FF90EF90DF90CF90089540E034
:1003E00050E0BA01F1CF6DE58AE50E945D016CE74E
:1003F0008CE50E945D01089565E58AE50E945D0136
:1004000060E78CE50E945D010895E82FF92F1082C6
:100410008FEF81838283138214824CE350E060E289
:1004200070E0CF0105960E940A100895CF92DF92E6
:10043000EF92FF920F931F93CF93DF93CDB7DEB769
:10044000082F192FCB5EDE4FC880C551D140CA5E40
:10045000DE4FD880C651D140C95EDE4FE880C7511B
:10046000D140C85EDE4FF880C851D14083E092E0B1
:100470000E9405024B854B3008F04AE050E0BE0177
:10048000645F7F4F88E092E00E940110C45FDE4FFE
:100490004881CC50D1404B3008F04AE050E0BE01DA
:1004A00064577F4F82E192E00E940110E3E0F2E0A6
:1004B000C18ED28EC15FDE4F8881CF50D140838FF5
:1004C000C05FDE4F8881C051D140848FCE5EDE4F49
:1004D0008881C251D140858FCD5EDE4F8881C35166
:1004E000D140868FCC5EDE4F8881C451D140878F4A
:1004F000AE2DBF2DE3E2F2E041E452E02D913C91BC
:10050000119720832D913D9131833296E417F507A1
:10051000A9F769E388E092E00E949F0160938D0152
:1005200070938E0180938F0190939001E3E0F2E04D
:1005300066AF77AF809343028CE380838FE184833F
:10054000C35FDE4F8881CD50D14082838FEF81839E
:1005500082E0838381E4A02FB12F01900D928A95D0
:10056000E1F7802F912FDF91CF911F910F91FF9095
:10057000EF90DF90CF900895CF93C82F81E00E9435
:100580004A01682F637ECC716C2B81E00E945D0173
:10059000CF91089588E20E944A0183FFFBCF08951E
:1005A000CF93E82FF92FC62F90819115D1F0319676
:1005B00020E030E05FE1529FD001539FB00D112445
:1005C0009D01290F311D91919111F5CF4C1B550BB8
:1005D000BA016F5F7F4FC9010E94B70F8C0FCF9197
:1005E000089520E030E0F2CF87E20E944A018115B1
:1005F000DCF708950E94F3018CE00E94BC020E9487
:10060000F40208950E94FC0180E10E94BC020E9455
:10061000F4020895EF92FF920F931F93CF93DF930D
:10062000CDB7DEB719850E9402030E94FA0281E06D
:100630000E94EA0780E80E94F107012F1D3308F0AD
:100640000CE384E0800F0E94F1078A850E94F10785
:100650008B850E94F1078C850E94F1078D850E9491
:10066000F107111569F07E018EE0E80EF11C10E033
:10067000F70181917F010E94F1071F5F1017C0F3FE
:1006800080E00E94EA070E94CA020E940203DF91F2
:10069000CF911F910F91FF90EF9008950F931F93AB
:1006A000CF93DF93082F192F0E940203C2E0D0E0FE
:1006B0008FEC97E00197F1F700C000000C171D07C1
:1006C00040F088E20E944A01219682FFF1CF81E04A
:1006D00001C080E0DF91CF911F910F9108950E949A
:1006E000FC0184E00E94BC020E94F4020895EF9293
:1006F000FF920F931F93CF93DF93E82EF92E4CE3D5
:1007000050E060E270E087EC91E00E940A1081E026
:100710000E94EA0780E00E94F1070E94FB07C2ECFA
:10072000D1E0845088830E94FB0789830E94FB07E5
:100730008A830E94FB078B830E94FB078C830881BE
:10074000011559F0C7ECD1E010E009531E4F0E948B
:10075000FB078993C017D107D1F780E00E94EA0711
:100760000E946F0381E4E2ECF1E0AE2DBF2D019019
:100770000D928A95E1F78E2D9F2DDF91CF911F91DC
:100780000F91FF90EF9008950F931F93CF93DF93F6
:10079000CDB7DEB7C154D1090FB6F894DEBF0FBE96
:1007A000CDBF4DB75EB7415451090FB6F8945EBF47
:1007B0000FBE4DBFADB7BEB7119681E4FE01E85B39
:1007C000FF4F01900D928A95E1F70E940A03CA57E4
:1007D000DF4F8881C658D04080938C01C957DF4FC6
:1007E0008881C758D04080938B01C857DF4F8881DC
:1007F000C858D04080938A010FB6F894DEBF0FBE70
:10080000CDBF1AE001E048C080918B01281385C05C
:1008100040918A0181E0941380E0809386012B96B9
:100820003FAD2B972091C301321382C02A963FAD72
:100830002A972091C401802F321380E08093850194
:10084000941325C080938401321323C08091C60184
:100850008032F9F48091CA018F3FD9F481E001C060
:1008600082E0CF5BDF4F0FB6F894DEBF0FBECDBF87
:10087000DF91CF911F910F91089581E02A962FADBE
:100880002A979091C401291380E0809385011092EA
:1008900084011150111521F38AEF90E00E944E035C
:1008A0008115B9F3CE0101960E94770381E4FE0120
:1008B0003196A2ECB1E001900D928A95E1F781E2C8
:1008C00091E00E94A3004DB75EB7415451090FB6A5
:1008D000F8945EBF0FBE4DBFADB7BEB7119681E4B1
:1008E000E2ECF1E001900D928A95E1F70E9420017F
:1008F000E2ECF1E0858180938901268120938801D3
:100900009781909387010FB6F894DEBF0FBECDBFDD
:1009100030918C01831709F477CF10928601909162
:10092000C3012B968FAD2B97981709F4A6CF80E0C3
:1009300010928501811509F4AACF10928401A9CFE4
:1009400081E00E9425058FE19EE40197F1F700C048
:10095000000080E00E9425058FE19EE40197F1F7F9
:1009600000C000000895CF93DF9300D0CDB7DEB76D
:100970000E94A0042FEF80E792E021508040904039
:10098000E1F700C000000E946F036CE687E00E9460
:100990005D0160E888E00E945D0160E089E00E94FE
:1009A0005D0160E185E00E945D016FE88CE30E94DB
:1009B0005D0160E38FE60E945D018DE294ED9A8314
:1009C000898342E0BE016F5F7F4F8FE20E94730117
:1009D00068E88EE20E945D0161E082E00E945D01B4
:1009E00060E083E00E945D0160E884E00E945D01B8
:1009F00060E186E00E945D0160E086E00E945D01AA
:100A000060EE89E10E945D0160EE8AE10E945D0175
:100A100060ED87E30E945D0160E08CE20E945D0171
:100A200064E08DE20E945D016FE781E10E945D015B
:100A30000F900F90DF91CF910895399A6B9A389863
:100A4000409A80E58093AC0008953A9A811511F0A0
:100A5000429A089542980895549A811511F05C9A2B
:100A600008955C9808953B9A811511F0439A089572
:100A7000439808951092B9008CE08093B80084E008
:100A80008093BC00089594EA9093BC00ECEBF0E0F6
:100A900090819115ECF78093BB0084E88093BC00B3
:100AA000ECEBF0E080818115ECF79091B900987F34
:100AB000983131F081E0903409F0089580E0089594
:100AC00080E0089584E98093BC00ECEBF0E0808145
:100AD00084FFFDCF089584EC8093BC00ECEBF0E044
:100AE00080818115ECF78091BB0008958093BB0055
:100AF00084E88093BC00ECEBF0E080818115ECF79A
:100B00009091B900987F81E0983209F0089580E0D3
:100B10000895EF92FF920F931F93CF93DF93C62F09
:100B2000042F152FE22E880F0E944305F82E811501
:100B300051F0FF24F3948F2DDF91CF911F910F91EE
:100B4000FF90EF9008958C2F0E947605E11449F0F4
:100B5000E8010E0D111D89910E947605C017D1077D
:100B6000D1F70E946205E7CFCF93DF930F92CDB705
:100B7000DEB7498321E0AE014F5F5F4F0E948905D8
:100B80000F90DF91CF91089584E88093BC00ECEB47
:100B9000F0E080818115ECF78091BB000895AF9261
:100BA000BF92DF92EF92FF920F931F93CF93DF9349
:100BB000C82FF62E042F152FD22F880F0E94430521
:100BC000DD24D394811559F08D2DDF91CF911F91A4
:100BD0000F91FF90EF90DF90BF90AF9008958F2D11
:100BE0000E9476058C2F880F81600E944305D82EC5
:100BF00081111EC08D2F8150990B5C01D23060F0A5
:100C0000CD2D7801EC0EF11C0E946B05F70180835D
:100C1000CF5FCA151B04ACF38D2F8150990B080FC1
:100C2000191F0E94C405F80180830E946205CCCF81
:100C3000DD24D394C9CF21E00E94CF050895CF933E
:100C4000DF930F92CDB7DEB7AE014F5F5F4F0E94CB
:100C50001B0689810F90DF91CF910895AF92BF92CB
:100C6000DF92EF92FF920F931F93CF93DF93C82FE2
:100C7000F62EE72E042F152FD22F880F0E94430542
:100C8000DD24D394811559F08D2DDF91CF911F91E3
:100C90000F91FF90EF90DF90BF90AF9008958E2D51
:100CA0000E9476058F2D0E9476058C2F880F81601B
:100CB0000E944305D82E81111EC08D2F8150990BA3
:100CC0005C01D23060F0CD2D7801EC0EF11C0E9459
:100CD0006B05F7018083CF5FCA151B04ACF38D2F22
:100CE0008150990B080F191F0E94C405F8018083D9
:100CF0000E946205C9CFDD24D394C6CF209A81110A
:100D000002C0289A089528980895CF93DF9390E41D
:100D1000899FE00111248D2F0E94F1078C2F0E94E2
:100D2000F107DF91CF910895FF920F931F93CF9317
:100D3000DF93C82F062F172FF42E80E00E94EA07BA
:100D400081E00E947E0686E00E94F10780E00E941A
:100D50007E0681E00E947E0682E00E94F1078C2FD1
:100D60000E948506F11449F0E8010F0D111D8991CB
:100D70000E94F107C017D107D1F780E00E947E06DC
:100D800081E00E947E0684E00E94F10780E00E94DC
:100D90007E0681E00E947E0685E00E94F1070E94A7
:100DA000FB078093940180E00E947E06809194016D
:100DB0008111EFCFDF91CF911F910F91FF90089597
:100DC00080935D0541E06DE575E080E00E9494064A
:100DD0000895FF920F931F93CF93DF93C82F062F91
:100DE000172FF42E81E00E947E0684E00E94F10716
:100DF00080E00E947E0681E00E947E0683E00E94E1
:100E0000F1078C2F0E948506F11449F0E8010F0DBF
:100E1000111D0E94FB078993C017D107D1F780E00D
:100E20000E947E06DF91CF911F910F91FF90089550
:100E3000CF93DF93C4E6D5E0188241E0BE0180E0A5
:100E40000E94E9068881DF91CF910895CF93DF93C7
:100E5000CDB7DEB7811103C0DF91CF91089524E6AD
:100E600035E01092A4059CE3FE013A96D901019069
:100E70000D929A95E1F79985F90194AF9F8195AF0D
:100E80009E8196AF988597AF40E4B9010E94940681
:100E9000E3CFFF920F931F93CF93DF93082F192F68
:100EA000F62E83E092E00E94050240E450E060E20A
:100EB00070E084E695E00E940A10C4E6D5E0109246
:100EC000A40540E4BE018F2D0E94E9068CE3FE01DB
:100ED000A8E0B2E001900D928A95E1F7E3E0F2E03C
:100EE0008CAD84838DAD82838EAD81838FAD838302
:100EF0008CE3808381E4A02FB12F01900D928A951D
:100F0000E1F7802F912FDF91CF911F910F91FF90EB
:100F10000895CF93DF93D82FC92F0E941807682F09
:100F20008D2F9C2F0E9449078D2F9C2FDF91CF91F1
:100F300008951F93CF93DF93CDB7DEB70E941807B4
:100F400011E08F3F11F011E0180F8DB79EB781545B
:100F500091090FB6F8949EBF0FBE8DBFADB7BEB757
:100F6000119681E4FE01369601900D928A95E1F783
:100F7000812F0E9426070FB6F894DEBF0FBECDBFAB
:100F8000812F0E94E006DF91CF911F910895CF93AA
:100F9000C82F40E450E060E270E084E695E00E94F3
:100FA0000A1040E464E675E08C2F0E949406CF910D
:100FB00008950E94180780939301811101C008953C
:100FC0008150809392010E94E006809193010E94DB
:100FD000C70708956A9A811102C0729A089572989B
:100FE00008958093AE00EDEAF0E080818115ECF782
:100FF0008091AE0008958FEF0E94F1070895FF924F
:101000000F931F93CF93DF93182FD92FF62E072F0F
:10101000C42F44E150E060E270E087E493E00E9476
:101020000A10AF2DB02F50E030E003C03F5F3C17F7
:1010300060F42D91211549F02032C1F3E52FF0E045
:10104000E95BFC4F20835F5FF1CF252F30E03093C9
:101050005D0320935C0387E1E7E4F3E0A12FBD2F5C
:1010600001900D928A95E1F7812F9D2FDF91CF910D
:101070001F910F91FF900895559A811511F05D9A77
:1010800008955D980895689A811511F0709A0895F1
:1010900070980895262F642F752F482F592F83E5B8
:1010A0000E942E0608950F931F93CF93DF93CDB721
:1010B000DEB7C150D1400FB6F894DEBF0FBECDBF32
:1010C000082F192F80E00E943C0881E00E9443080D
:1010D0008FE19EE40197F1F700C00000EFE5F4E036
:1010E0008EEFDF011D928A95E9F744E050E06EEF44
:1010F000CF010E944A086FE574E0CE0101960E947C
:10110000E00B81E091E0FE013196AEE5B3E00190A5
:101110000D920197E1F781E00E943C0880E00E9477
:10112000430881E091E0EEE5F3E0A02FB12F0190BC
:101130000D920197E1F7802F912FCF5FDE4F0FB611
:10114000F894DEBF0FBECDBFDF91CF911F910F91FD
:101150000895AF92BF92CF92DF92EF92FF920F93DA
:101160001F93CF93DF93CDB7DEB7C150D1400FB6F9
:10117000F894DEBF0FBECDBFE82EF92ECE0101964A
:101180000E94530881E091E0FE013196AEE5B3E0A4
:1011900001900D920197E1F740915E036FE573E0D6
:1011A000CE0101960E94FF0787E1FE013196A7E478
:1011B000B3E001900D928A95E1F76CE270E087E46C
:1011C00093E00E941110082F192F0115110509F441
:1011D00046C0075413406801DD240F2EF7E4AF2EFC
:1011E000F3E0BF2EF02DA601B50185E492E00E9448
:1011F0000110F50115895689B601685B7C4F412FB6
:1012000085EC92E00E94011000934402101B1093A1
:1012100045034BE360E085E492E00E94D0028093B6
:10122000460383E091E0E4E4F2E0AE2DBF2D0190AF
:101230000D920197E1F78E2D9F2DCF5FDE4F0FB6F8
:10124000F894DEBF0FBECDBFDF91CF911F910F91FC
:10125000FF90EF90DF90CF90BF90AF900895E7E4BC
:10126000F3E015895689412FBF0185E492E00E9481
:10127000011010934402E5ECF2E08EE49FE29183CA
:10128000808381E4828313E0C2CF53985B980895F2
:10129000E9E6F0E080818860808380818B7F8083B5
:1012A000E99A0895E9E6F0E0808182608083808198
:1012B0008E7F8083E89A0895F894A895E0E6F0E0A0
:1012C00080818861808385E08083808180648083E1
:1012D00078940895F894E0E6F0E080818861808356
:1012E000108278940895EDE5F5E080E880838183AD
:1012F000828323E0AF0163E188E60E9489050895B7
:101300000F931F93CF93DF93CDB7DEB7A1970FB69F
:10131000F894DEBF0FBECDBF3C8F4D8F6F8F78A38B
:1013200089A31F922F938C8D1F928F938D8D1F9267
:101330008F938F8D1F928F9388A11F928F9389A176
:1013400090E08053984F9F938F9383E391E09F9316
:101350008F931F928AE18F938E010F5F1F4F1F9310
:101360000F930E941C10C8010E94A3008FE191E01E
:101370000E94A3000FB6F894DEBF0FBECDBFA196AA
:101380000FB6F894DEBF0FBECDBFDF91CF911F9196
:101390000F910895682F88E60E941F06089580E047
:1013A0000E94CA09089581E00E94CA0908954AE08E
:1013B00064E088E60E94B405089542E061E088E6B2
:1013C0000E94B4050895482F592F27E066E088E66B
:1013D0000E94CF050895CF93DF9300D000D000D0B6
:1013E0000F92CDB7DEB78DE595E00E94E309ADE53C
:1013F000B5E08C91EBEBF1E0282F22952F70922F26
:10140000990F990F291B220F280F208311968C9179
:101410001197382F32953F70932F990F990F391BE1
:10142000330F380F318312968C911297482F4295C3
:101430004F704B70942F990F990F491B440F8F7B5E
:10144000480F428313965C911397538314968C91A3
:101450001497682F62956F70962F990F990F691BDB
:10146000660F680F648315968C911597782F729587
:101470007F707770972F990F990F791B770F8F7760
:10148000780F758316969C91892F82958F70A82F5F
:10149000AA0FAA0F8A1B880F9E51890F86830E946C
:1014A000800987E0EBEBF1E0DE01119601900D92EF
:1014B0008A95E1F729813A814B815C816D817E813A
:1014C0008F8190E027960FB6F894DEBF0FBECDBF98
:1014D000DF91CF910895AF92BF92CF92DF92EF92BA
:1014E000FF920F931F93CF93DF9300D000D000D0D3
:1014F0000F92CDB7DEB7A22EB32EC42E5C83D62EAC
:10150000E72EF82E80ED0E944305182F811599F0E3
:1015100011E0812F27960FB6F894DEBF0FBECDBF26
:10152000DF91CF911F910F91FF90EF90DF90CF90BF
:10153000BF90AF90089586E00E9476050DECA09EC6
:10154000912D1124969596959695892F880F890F40
:10155000880F8A0D0E947605B09E912D11249695D4
:1015600096959695892F880F890F880F8B0D0E946D
:101570007605C09E912D1124969596959695892F66
:10158000880F890F880F8C0D0E9476058C810E9430
:101590007605D09E912D1124969596959695892F36
:1015A000880F890F880F8D0D0E947605E09E012D12
:1015B0001124069506950695802F880F800F880FB9
:1015C0008E0D0E9476058F2D90E06AE070E00E94FB
:1015D000CB0F6D5F7F4F862F880F860F880F9EE1A0
:1015E0009F0D890F0E9476050E94620592CFCF93CE
:1015F000DF93CDB7DEB7C154D1090FB6F894DEBF83
:101600000FBECDBF0E94B3048FEC97E00197F1F7B6
:1016100000C0000083E092E00E94050227964FADD3
:1016200027974B3008F04AE050E0BE01695B7F4FDE
:1016300088E092E00E940110C95BDE4F4881C754E8
:10164000D1404B3008F04AE050E0BE0169537F4F73
:1016500082E192E00E940110E3E0F2E084E1808305
:1016600081E0848383838DB79EB7815491090FB63F
:10167000F8949EBF0FBE8DBFADB7BEB7119681E483
:1016800001900D928A95E1F70E940A030FB6F89433
:10169000DEBF0FBECDBF84E690E00E944E03809374
:1016A000950181110BC082E0CF5BDF4F0FB6F8943C
:1016B000DEBF0FBECDBFDF91CF910895CE01019661
:1016C0000E94770381E4FE013196A2ECB1E0019023
:1016D0000D928A95E1F78091C601823011F082E087
:1016E000E3CFEBEBF1E0C85BDE4F2881C854D1407B
:1016F0002083A2ECB1E016963C91169731831796A1
:101700004C911797428318966C9118976483199699
:101710007C91199775831A968C911A9786831B96DC
:101720005C9153830E946B0A81E0BECF80E480937A
:101730007C0010927B0081E880937A0080E008951D
:10174000EAE7F0E080818F7780830895EAE7F0E0B0
:101750008081806880830895811109C080E480932E
:101760007C00EAE7F0E080818064808308958E3019
:1017700049F0ECE7F0E09081907F90839081892B95
:101780008083EFCF8EE480937C00EBCF80917A0052
:1017900082958170089580917800909179000895E4
:1017A0000E94AC0B0E94C60B8115E1F30E94CB0B8B
:1017B0009C01EAE7F0E0908190619083C90108956F
:1017C0008F929F92AF92BF92CF92DF92EF92FF9251
:1017D0000F931F93CF93DF9300D0CDB7DEB7082FC1
:1017E000B92E462F572F2DB73EB73A832983109233
:1017F0005E04DA018C91833029F181E080935E04EC
:1018000081E091E0EEE5F3E0A02FBB2D01900D9279
:101810000197E1F7802F9B2DE981FA810FB6F894AB
:10182000FEBF0FBEEDBF0F900F90DF91CF911F91C4
:101830000F91FF90EF90DF90CF90BF90AF909F906F
:101840008F900895FA0181818F3FE9F1DA011296B4
:101850001C91B12FB8709B2EFA013381A48013FF25
:1018600036C08580E6E0F0E0832F90E0BC016F5F3A
:101870007F4FADB7BEB7A61BB70B0FB6F894BEBF70
:101880000FBEADBF6DB77EB76F5F7F4F311579F07B
:101890007F01E40FF51FDB016B01C30ED11C219109
:1018A0002D93AC15BD05D9F7F701E30FF11D860F98
:1018B000971FDC011C92DB018C91843561F08BE079
:1018C00080935E049DCF82E080935E0499CF8B2E3F
:1018D000E5E0F0E0C9CF812F8770813021F08CE006
:1018E00080935E048DCF911411F0E80DF11DDA01A3
:1018F000AE0FBF1F8C91E80FF11D3196AA949A2D5F
:10190000981BA81669F0E40FF51FAFE5B3E0292F87
:1019100030E0215A3C4F81918D93A217B307D9F73C
:1019200090935E038FE593E00E94A3008FE191E026
:101930000E94A30065CF8F9381E08093B7018F91C0
:1019400018951F920F920FB60F9211242F933F9369
:101950004F935F936F937F938F939F93AF93BF93B7
:10196000EF93FF9381E08093B6018091B8018115D8
:1019700089F0FF91EF91BF91AF919F918F917F91EE
:101980006F915F914F913F912F910F900FBE0F90EC
:101990001F901895E091B501F0E0EE0FFF1FE9569A
:1019A000FE4F8081918101969183808381E08093B5
:1019B000B8010E945C09DDCF1F920F920FB60F9203
:1019C00011242F933F934F935F936F937F938F9344
:1019D0009F93AF93BF93EF93FF931092B8010E9430
:1019E0006A09FF91EF91BF91AF919F918F917F9184
:1019F0006F915F914F913F912F910F900FBE0F907C
:101A00001F90189580E00E947E0680E00E94EA0701
:101A100081E00E943C0880E00E94430880E00E9430
:101A200033058FE19EE40197F1F700C0000085B710
:101A3000806685BF8F7D85BF83B7817F846083BFCC
:101A400083B7816083BF7894889508950E94A60B20
:101A50008EE00E94D00B8EE00E94D00B8EE00E94A0
:101A6000D00B9093BA018093B9010E94A00B809192
:101A7000B9019091BA010895CDB7DEB7CE50D140EB
:101A80000FB6F894DEBF0FBECDBF81E00E943305D4
:101A90008FE19EE40197F1F700C000000E94450924
:101AA0000E9479000E943A050E941D050E94960B33
:101AB0000E9448090E9452090E9473090E94D70996
:101AC0000E94DD090E94D3090E94CF090E94B3043D
:101AD00080E090E0FC01EE0FFF1FE956FE4F1182FF
:101AE000108201968F309105A9F7CE0108960E94C9
:101AF000A90883E091E0FE013896A4E4B2E00190E9
:101B00000D920197E1F72DB73EB7235031400FB644
:101B1000F8943EBF0FBE2DBFADB7BEB7119683E0A0
:101B200091E0E4E4F2E001900D920197E1F70E9468
:101B3000F70A809396010FB6F894DEBF0FBECDBFB3
:101B400005E010E08130C1F181E00E942C058FE1B9
:101B50009EE40197F1F700C0000080E00E942C0590
:101B60009FE722E332E0915020403040E1F700C08F
:101B70000000015011090115110531F70E94260DD1
:101B80009E01285F3F4F07E911E0CE010196C55F36
:101B9000DE4F2883CB50D140C45FDE4F3883CC501A
:101BA000D140C35FDE4F8883CD50D140C25FDE4F4E
:101BB0009883CE50D1404DC005E010E081E00E94F6
:101BC0002C053FE782E392E0315080409040E1F7FE
:101BD00000C0000080E00E942C058FE19EE4019788
:101BE000F1F700C00000015011090115110531F78E
:101BF000C5CF2DB73EB7235031400FB6F8943EBF46
:101C00000FBE2DBFADB7BEB7119683E091E0E4E4FF
:101C1000F2E001900D920197E1F70E94F70A80939C
:101C200096010FB6F894DEBF0FBECDBF68C020E0AE
:101C300030E0F901EE0FFF1FE956FE4F11821082CE
:101C40002F5F3F4F2F303105A1F791E0F91609F4CE
:101C50002AC180E00E94EA0780E00E947E060E947E
:101C6000020DF8948091B701811599F31092B70194
:101C70008091B5018F5F8093B5010E94D3090E94C6
:101C8000CF090E94D3090E94CF098091B5018F30FE
:101C900000F31092B50181E00E9433050E94B30465
:101CA00081E00E94430880E00E943C088FEC97E0AE
:101CB0000197F1F700C00000C55FDE4F8881CB506F
:101CC000D140C45FDE4F9881CC50D1400E94A9081A
:101CD00083E091E0C55FDE4FE881CB50D140C45F27
:101CE000DE4FF881CC50D140A4E4B2E001900D92D7
:101CF0000197E1F780919601823009F47ACF83E071
:101D000092E00E9405020E94260D0E94260DE82EF8
:101D1000F92E0E94EB0929833A834B835C836D8300
:101D20007E838F831F930F93FF92EF9200D000D09A
:101D300000D00F92ADB7BEB7119687E0C35FDE4FFC
:101D4000E881CD50D140C25FDE4FF881CE50D14006
:101D500001900D928A95E1F72DB73EB7235031409F
:101D60000FB6F8943EBF0FBE2DBFADB7BEB71196EC
:101D700083E091E0E4E4F2E001900D920197E1F755
:101D8000C55FDE4F8881CB50D140C45FDE4F988164
:101D9000CC50D1400E94160281E4C55FDE4FE8813D
:101DA000CB50D140C45FDE4FF881CC50D140A3E08E
:101DB000B2E001900D928A95E1F70FB6F894DEBF7C
:101DC0000FBECDBF2DB73EB7215431090FB6F894E1
:101DD0003EBF0FBE2DBFADB7BEB7119681E4E3E0A5
:101DE000F2E001900D928A95E1F70E940A030FB686
:101DF000F894DEBF0FBECDBF8DE491E00E94A3003A
:101E00002DB73EB7215431090FB6F8943EBF0FBE2F
:101E10002DBFADB7BEB7119681E4E3E0F2E00190CB
:101E20000D928A95E1F70E9420010FB6F894DEBF6B
:101E30000FBECDBF2DB73EB7215431090FB6F89470
:101E40003EBF0FBE2DBFADB7BEB7119681E4E3E034
:101E5000F2E001900D928A95E1F70E94C403F82EFA
:101E60000FB6F894DEBF0FBECDBF92E0F912DFCE01
:101E70002DB73EB7215431090FB6F8943EBF0FBEBF
:101E80002DBFADB7BEB7119681E4E3E0F2E001905B
:101E90000D928A95E1F70E9499070FB6F894DEBF7C
:101EA0000FBECDBFC4CE0E941807811509F4D1CE54
:101EB00083E092E00E940502C55FDE4F8881CB502F
:101EC000D140C45FDE4F9881CC50D1400E94890739
:101ED00081E4C55FDE4FE881CB50D140C45FDE4F67
:101EE000F881CC50D140A3E0B2E001900D928A95E8
:101EF000E1F722E2209307028DB79EB78154910942
:101F00000FB6F8949EBF0FBE8DBFADB7BEB711968A
:101F100081E4E3E0F2E001900D928A95E1F70E94FE
:101F2000C4030FB6F894DEBF0FBECDBF8BE591E0C2
:101F30000E94A3008DB79EB7815491090FB6F89403
:101F40009EBF0FBE8DBFADB7BEB7119681E4E3E073
:101F5000F2E001900D928A95E1F70E9420010FB600
:101F6000F894DEBF0FBECDBF0E94D90772CEAA1B68
:101F7000BB1B51E107C0AA1FBB1FA617B70710F074
:101F8000A61BB70B881F991F5A95A9F780959095A6
:101F9000BC01CD01089597FB072E16F4009407D0DD
:101FA00077FD09D00E94B70F07FC05D03EF490954D
:101FB00081959F4F0895709561957F4F0895A1E297
:101FC0001A2EAA1BBB1BFD010DC0AA1FBB1FEE1FB3
:101FD000FF1FA217B307E407F50720F0A21BB30BFE
:101FE000E40BF50B661F771F881F991F1A9469F77A
:101FF00060957095809590959B01AC01BD01CF01D6
:102000000895FB01DC0102C001900D924150504047
:10201000D8F70895DC0101C06D9341505040E0F7BE
:102020000895FC018191861721F08823D9F799271B
:1020300008953197CF010895AEE0B0E0E2E2F0E11B
:102040000C94EC120D891E8986E08C831A83098317
:102050008F89988D813020E8920710F080E090E819
:1020600001979E838D83AE01455E5F4F698D7A8DAA
:10207000CE0101960E944E104D815E8157FD0AC02F
:102080002F813885421753070CF49A01020F131F52
:10209000F80110822E96E4E00C940813ABE0B0E057
:1020A000E4E5F0E10C94DF126C017B018A01FC0194
:1020B00017821682838181FFDAC19AE0492EF601E8
:1020C0002381F70123FD859123FF81917F018115F4
:1020D00009F41FC1853239F423FD959123FF9191B5
:1020E0007F01953229F4B60190E00E945012E7CFAB
:1020F00030E0612C512C712CF0E27F1640F59B32C0
:10210000D9F058F49032D1F09332F1F09E3299F533
:1021100076FCFFC0689476F806C09D3291F090334B
:10212000C1F4689470F8F70123FD959123FF919114
:102130007F019111E1CF29C0689471F8689472F819
:10214000F2CF689473F8EFCF689474F8ECCF77FC13
:102150001CC080ED890F8A30C8F676FE05C0649CED
:10216000800D1124682EDFCF549C800D1124582E31
:10217000689475F8D8CF9C3619F4689477F8D3CF63
:102180009C3409F44BC0983671F2892F8F7D8554A9
:10219000833008F445C0933609F466C0933709F4D8
:1021A00069C0933509F475C0943619F0993609F071
:1021B0009FC0F80177FE95C06191719181919191D5
:1021C0008F01272D2F76722E97FF09C0909580954D
:1021D000709561957F4F8F4F9F4F689477F82AE0F5
:1021E00030E0AE014F5F5F4F5A010E9480128A19A2
:1021F000A82E76FEC5C0872D8E7FA61408F0BFC01E
:1022000074FE12C172FC06C1F72DFE7E7F2EB62C25
:10221000872D8678811509F4C0C001C131E083CFD4
:102220003115F9F0085F1F4F8FE389838824839469
:10223000912CAE014F5F5F4F5A01E89477F873FC21
:1022400003C085149104B0F181149104D1F55114A7
:1022500009F435CFB60180E290E00E9450125A9402
:10226000F6CF0C5F1F4FE0CFF801808189830E5FAE
:102270001F4FDCCFF801A190B1908F01662D70E067
:1022800076FC02C06FEF7FEFC5010E9445124C0142
:10229000D4CFF801A190B1908F01662D70E076FC4B
:1022A00002C06FEF7FEFC5010E943A124C016894A3
:1022B00077F8C5CFB60180E290E00E9450125A94A0
:1022C000C0CFF50177FC859177FE81915F01B60162
:1022D00090E00E94501251105A94F1E08F1A910828
:1022E000B3CF61917191072E000C880B990B68CFC9
:1022F000372CE89434F82AE030E0953739F1572D3F
:10230000597F352E903799F058F49835A9F09F36BB
:10231000D9F0F601868197812B96E1E10C94FB12AE
:102320009837B9F774FC05C020E130E00FC068941D
:1023300034F8689432F8F8CF74FE03C0872D8660B5
:10234000382E20E132E002C028E030E0F80137FE0C
:1023500011C061917191819191918F01FE0131962E
:102360005F01AF010E9480128A19A82E732CE89495
:1023700077F83FCF6191719180E090E0EECF782EB9
:10238000BA2C74FE45CFFE01EA0DF11D8081803329
:1023900009F043C0272D297E722E73FC0EC070FEFB
:1023A0004FC06A2CB51418F4650C6B18B52C852D2C
:1023B0008B195B1408F480E0B80EB51408F042C025
:1023C0005B1874FE41C0B60180E390E00E94501299
:1023D00072FE09C088E590E071FC02C088E790E0D9
:1023E000B6010E945012A614D8F1AA94B12C4FEF56
:1023F000A41AB40ACE0101963C01A80EB91EF5013B
:1024000082915F01B60190E00E9450126A147B0431
:10241000B1F71DCFB62C782EB6CF72FC02C0B394A4
:10242000BCCFB394B394B9CFB62C782EF1CEB6010D
:1024300080E290E00E94501233943514C0F3B7CF7D
:102440003B2CFBCF512CBDCF872D8678811559F2BF
:1024500080E271FC8BE277FC8DE2B60190E0C1CFA7
:10246000B60180E390E00E9450126A94BCCF8FEFD7
:102470009FEF52CFFC010590615070400110D8F7DA
:10248000809590958E0F9F1F0895FC0161507040BC
:1024900001900110D8F7809590958E0F9F1F089599
:1024A0000F931F93CF93DF93182F092FEB018B818D
:1024B00081FD09C01FEF0FEF812F902FDF91CF918A
:1024C0001F910F91089582FF14C02E813F818C814E
:1024D0009D81281739073CF4E881F981CF010196E5
:1024E0009983888310838E819F8101969F838E8339
:1024F000E3CFE885F985812F0995892BA1F3DACF00
:10250000FA01AA27283051F1203181F1E8946F9324
:102510006E7F6E5F7F4F8F4F9F4FAF4FB1E03ED0CA
:10252000B4E03CD0670F781F891F9A1FA11D680F68
:10253000791F8A1F911DA11D6A0F711D811D911D9B
:10254000A11D20D009F468943F912AE0269F112410
:102550003019305D3193DEF6CF010895462F477074
:10256000405D4193B3E00FD0C9F7F6CF462F4F70CF
:10257000405D4A3318F0495D31FD4052419302D02D
:10258000A9F7EACFB4E0A6959795879577956795D3
:10259000BA95C9F700976105710508959B01AC01D3
:1025A0000A2E06945795479537952795BA95C9F7FA
:1025B000620F731F841F951FA01D08952F923F92D5
:1025C0004F925F926F927F928F929F92AF92BF9243
:1025D000CF92DF92EF92FF920F931F93CF93DF93EF
:1025E000CDB7DEB7CA1BDB0B0FB6F894DEBF0FBE4C
:1025F000CDBF09942A88398848885F846E847D8499
:102600008C849B84AA84B984C884DF80EE80FD809A
:102610000C811B81AA81B981CE0FD11D0FB6F89410
:0E262000DEBF0FBECDBFED010895F894FFCFD1
:10262E0025750020202020004C454E2C544F2C4662
:10263E00524F4D2C44545950452C464C4147530A49
:10264E00004D6573736167652072656365697665B4
:10265E00640A0025752F253032752F2530327520EE
:10266E0025753A253032753A25303275005458208A
:10267E00444154412053656E740A0054582044411D
:10268E0054412046726F6D20535049204D656D6F39
:04269E0072790A0043
:00000001FF
