:100000000C945A000C9497090C949D090C94770059
:100010000C9477000C9477000C94CC090C94770026
:100020000C9477000C9477000C9477000C94770074
:100030000C9477000C9477000C9477000C94770064
:100040000C9477000C9477000C9477000C94770054
:100050000C9477000C9477000C9477000C94770044
:100060000C9477000C9477000C9477000C94770034
:100070000C9477000C9477000C9477000C94770024
:100080000C9477000C9477000C9477000C94770014
:100090000C9477000C9477000C9477000C94770004
:1000A0000C9477000C9477000C9477000C947700F4
:1000B0000C94770011241FBECFEFD8E0DEBFCDBF78
:1000C00011E0A0E0B1E0E6E6FEE102C005900D928D
:1000D000A635B107D9F725E0A6E5B1E001C01D922C
:1000E000A93CB207E1F70E942C0A0C94310F0C9442
:1000F00000001092C5008CE08093C40088E18093DA
:10010000C10086E08093C2000895E0ECF0E09081A9
:1001100095FFFDCF8093C6000895CF93DF93C82F3E
:10012000D92F8881811531F021960E94850089910F
:100130008111FBCFDF91CF910895CF93C82F81E03C
:100140000E94FC048C2F0E9403058FEF90E00E9418
:100150000D05C82F80E00E94FC048C2FCF910895DC
:10016000CF93DF93D82FC62F81E00E94FC048D2F00
:1001700080680E9403058C2F0E940305C82F80E031
:100180000E94FC048C2FDF91CF910895FF920F9372
:100190001F93CF93DF93082FC62FD72F142F81E003
:1001A0000E94FC04802F80680E940305F82E0FEF48
:1001B000010F111569F010E00F5F1F4F0C0F1D1F8D
:1001C000FE01219680810E940305C017D107C1F767
:1001D00080E00E94FC048F2DDF91CF911F910F9141
:1001E000FF900895CF92DF92EF92FF920F931F93AB
:1001F000CF93DF93062F10929B01611509F442C043
:10020000C82FD92F40E050E0BA0110E0CC24CA94A6
:10021000DC2CEC2CF12C2991DB01CA01880F991FF1
:10022000AA1FBB1F880F991FAA1FBB1F880F991FEA
:10023000AA1FBB1F880F991FAA1FBB1F880F991FDA
:10024000AA1FBB1F841B950BA60BB70BBC01CD01CE
:10025000620F711D811D911DA70196010E94FB0B6C
:10026000AB01BC011F5F10939B011013D4CFCB01D6
:10027000BA01DF91CF911F910F91FF90EF90DF9026
:10028000CF90089540E050E0BA01F1CF6DE58AE5E6
:100290000E94B0006CE78CE50E94B000089565E50F
:1002A0008AE50E94B00060E78CE50E94B0000895E6
:1002B000E82FF92F10828FEF8183828313821482BB
:1002C0004CE350E060E270E0CF0105960E94260CFE
:1002D0000895CF92DF92EF92FF920F931F93CF93E7
:1002E000DF93CDB7DEB7082F192FCB5EDE4FC88066
:1002F000C551D140CA5EDE4FD880C651D140C95EDB
:10030000DE4FE880C751D140C85EDE4FF880C8514B
:10031000D1408AE591E00E9458014B854B3008F0AE
:100320004AE050E0BE01645F7F4F8FE591E00E949C
:100330001D0CC45FDE4F4881CC50D1404B3008F0DB
:100340004AE050E0BE0164577F4F89E691E00E9489
:100350001D0CEAE5F1E0C18ED28EC15FDE4F8881CF
:10036000CF50D140838FC05FDE4F8881C051D140D4
:10037000848FCE5EDE4F8881C251D140858FCD5EA5
:10038000DE4F8881C351D140868FCC5EDE4F88819D
:10039000C451D140878FAE2DBF2DEAE7F1E048E987
:1003A00051E02D913C91119720832D913D91318306
:1003B0003296E417F507A9F769E38FE591E00E940B
:1003C000F200609356017093570180935801909307
:1003D0005901EAE5F1E066AF77AF80939A018CE3CB
:1003E00080838FE18483C35FDE4F8881CD50D1400D
:1003F00082838FEF818382E0838381E4A02FB12FFA
:1004000001900D928A95E1F7802F912FDF91CF9186
:100410001F910F91FF90EF90DF90CF900895CF93B1
:10042000C82F81E00E949D00682F637ECC716C2BE9
:1004300081E00E94B000CF91089588E20E949D0063
:1004400083FFFBCF0895CF93E82FF92FC62F90811C
:100450009115D1F0319620E030E05FE1529FD0015C
:10046000539FB00D11249D01290F311D91919111C0
:10047000F5CF4C1B550BBA016F5F7F4FC9010E942E
:10048000D30B8C0FCF91089520E030E0F2CF87E2BC
:100490000E949D008115DCF708950E9446018CE0C2
:1004A0000E940F020E94470208950E944F0180E1BE
:1004B0000E940F020E9447020895EF92FF920F934D
:1004C0001F93CF93DF93CDB7DEB719850E945502F6
:1004D0000E944D0281E00E94FC0480E80E94030516
:1004E000012F1D3308F00CE384E0800F0E94030508
:1004F0008A850E9403058B850E9403058C850E94D6
:1005000003058D850E940305111569F07E018EE0BB
:10051000E80EF11C10E0F70181917F010E940305B4
:100520001F5F1017C0F380E00E94FC040E941D02B0
:100530000E945502DF91CF911F910F91FF90EF9094
:1005400008950F931F93CF93DF93082F192F0E94C5
:100550005502C2E0D0E08FEC97E00197F1F700C0C0
:1005600000000C171D0740F088E20E949D002196B4
:1005700082FFF1CF81E001C080E0DF91CF911F9138
:100580000F9108950E944F0184E00E940F020E9483
:1005900047020895EF92FF920F931F93CF93DF933B
:1005A000E82EF92E4CE350E060E270E08FE591E038
:1005B0000E94260C81E00E94FC0480E00E9403055A
:1005C0000E940D05CAE5D1E0845088830E940D0584
:1005D00089830E940D058A830E940D058B830E94EA
:1005E0000D058C830881011559F0CFE5D1E010E0AD
:1005F000015A1E4F0E940D058993C017D107D1F7EC
:1006000080E00E94FC040E94C20281E4EAE5F1E07D
:10061000AE2DBF2D01900D928A95E1F78E2D9F2D65
:10062000DF91CF911F910F91FF90EF90089581E09E
:100630000E949C038FE19EE40197F1F700C0000047
:1006400080E00E949C038FE19EE40197F1F700C0D7
:1006500000000895CF93DF9300D0CDB7DEB70E949E
:1006600017032FEF80E792E0215080409040E1F7A0
:1006700000C000000E94C2026CE687E00E94B00049
:1006800060E888E00E94B00060E089E00E94B0006D
:1006900060E185E00E94B0006FE88CE30E94B0004A
:1006A00060E38FE60E94B0008DE294ED9A83898327
:1006B00042E0BE016F5F7F4F8FE20E94C60068E894
:1006C0008EE20E94B00061E082E00E94B00060E033
:1006D00083E00E94B00060E884E00E94B00060E126
:1006E00086E00E94B00060E086E00E94B00060EE0C
:1006F00089E10E94B00060EE8AE10E94B00060EDE6
:1007000087E30E94B00060E08CE20E94B00064E0E9
:100710008DE20E94B0006FE781E10E94B0000F906F
:100720000F90DF91CF910895399A6B9A3898409A3B
:1007300080E58093AC0008953A9A811511F0429AB1
:10074000089542980895549A811511F05C9A08957D
:100750005C9808953B9A811511F0439A0895439847
:1007600008951092B9008CE08093B80084E08093E3
:10077000BC00089594EA9093BC00ECEBF0E090810B
:100780009115ECF78093BB0084E88093BC00ECEB00
:10079000F0E080818115ECF79091B900987F983155
:1007A00031F081E0903409F0089580E0089580E010
:1007B000089584E98093BC00ECEBF0E0808184FF35
:1007C000FDCF089584EC8093BC00ECEBF0E08081D9
:1007D0008115ECF78091BB0008958093BB0084E8FD
:1007E0008093BC00ECEBF0E080818115ECF79091F8
:1007F000B900987F81E0983209F0089580E008956B
:10080000EF92FF920F931F93CF93DF93C62F042F86
:10081000152FE22E880F0E94BA03F82E811551F091
:10082000FF24F3948F2DDF91CF911F910F91FF90B3
:10083000EF9008958C2F0E94ED03E11449F0E80138
:100840000E0D111D89910E94ED03C017D107D1F73C
:100850000E94D903E7CFCF93DF930F92CDB7DEB7D6
:10086000498321E0AE014F5F5F4F0E9400040F906B
:10087000DF91CF91089584E88093BC00ECEBF0E029
:1008800080818115ECF78091BB000895AF92BF92F3
:10089000DF92EF92FF920F931F93CF93DF93C82FB6
:1008A000F62E042F152FD22F880F0E94BA03DD24B5
:1008B000D394811559F08D2DDF91CF911F910F9118
:1008C000FF90EF90DF90BF90AF9008958F2D0E9422
:1008D000ED038C2F880F81600E94BA03D82E8111FE
:1008E0001EC08D2F8150990B5C01D23060F0CD2D50
:1008F0007801EC0EF11C0E94E203F7018083CF5FC8
:10090000CA151B04ACF38D2F8150990B080F191FCA
:100910000E943B04F80180830E94D903CCCFDD24E0
:10092000D394C9CF21E00E9446040895CF93DF936A
:100930000F92CDB7DEB7AE014F5F5F4F0E949204BA
:1009400089810F90DF91CF910895AF92BF92DF928E
:10095000EF92FF920F931F93CF93DF93C82FF62E42
:10096000E72E042F152FD22F880F0E94BA03DD2403
:10097000D394811559F08D2DDF91CF911F910F9157
:10098000FF90EF90DF90BF90AF9008958E2D0E9462
:10099000ED038F2D0E94ED038C2F880F81600E9444
:1009A000BA03D82E81111EC08D2F8150990B5C0186
:1009B000D23060F0CD2D7801EC0EF11C0E94E203E4
:1009C000F7018083CF5FCA151B04ACF38D2F8150D4
:1009D000990B080F191F0E943B04F80180830E94A5
:1009E000D903C9CFDD24D394C6CF209A811102C088
:1009F000289A0895289808956A9A811102C0729AD7
:100A00000895729808958093AE00EDEAF0E0808139
:100A10008115ECF78091AE0008958FEF0E940305D9
:100A20000895FF920F931F93CF93DF93182FD92F21
:100A3000F62E072FC42F44E150E060E270E086EB11
:100A400092E00E94260CAF2DB02F50E030E003C0A2
:100A50003F5F3C1760F42D91211549F02032C1F31E
:100A6000E52FF0E0EA54FD4F20835F5FF1CF252FA3
:100A700030E03093CC022093CB0287E1E6EBF2E04A
:100A8000A12FBD2F01900D928A95E1F7812F9D2F07
:100A9000DF91CF911F910F91FF900895559A811585
:100AA00011F05D9A08955D980895689A811511F086
:100AB000709A089570980895262F642F752F482FE7
:100AC000592F83E50E94A50408950F931F93CF9398
:100AD000DF93CDB7DEB7CE5FD1090FB6F894DEBF96
:100AE0000FBECDBF082F192F80E00E944E0581E078
:100AF0000E9455058FE19EE40197F1F700C00000C8
:100B000044E050E06EEFCE0101960E945C05BE010C
:100B10006F5F7F4F802F912F0E94C70881E00E9456
:100B20004E05802F912FC250DF4F0FB6F894DEBFD5
:100B30000FBECDBFDF91CF911F910F910895AF925E
:100B4000BF92CF92DF92EF92FF920F931F93CF93BA
:100B5000DF93CDB7DEB7C851D1400FB6F894DEBFF2
:100B60000FBECDBFE82EF92ECE0101960E9465057D
:100B7000CE0102960E948D0083E591E00E948D00D7
:100B80004981BE016E5F7F4FCE018E5F9E4F0E94F6
:100B9000110587E1FE01EE5FFE4FACE9B1E0019087
:100BA0000D928A95E1F78CE991E00E948D0083E532
:100BB00091E00E948D006CE270E08CE991E00E946F
:100BC0002D0C082F192F0115110509F446C00C59D9
:100BD00011406801DD240F2EFCE9AF2EF1E0BF2E9D
:100BE000F02DA601B50184EB91E00E941D0CF501EA
:100BF00015895689B60163567E4F412F84E392E0F2
:100C00000E941D0C0093B301101B1093B4024BE320
:100C100060E084EB91E00E9423028093B50283E0C0
:100C200091E0E3EBF1E0AE2DBF2D01900D92019725
:100C3000E1F78E2D9F2DC85EDE4F0FB6F894DEBF14
:100C40000FBECDBFDF91CF911F910F91FF90EF901D
:100C5000DF90CF90BF90AF900895ECE9F1E0158957
:100C60005689412FBF0184EB91E00E941D0C109327
:100C7000B301E4E3F2E08EE49FE29183808381E4B8
:100C8000828313E0C2CF53985B980895E9E6F0E0C1
:100C900080818860808380818B7F8083E99A08953A
:100CA000E9E6F0E080818260808380818E7F8083AE
:100CB000E89A0895F894A895E0E6F0E080818861CC
:100CC000808385E080838081806480837894089528
:100CD000F894E0E6F0E08081886180831082789467
:100CE0000895CF93DF9300D00F92CDB7DEB780E8A1
:100CF00089838A838B8323E0AE014F5F5F4F63E17B
:100D000088E60E9400040F900F900F90DF91CF9122
:100D100008950F931F93CF93DF93CDB7DEB76B97F3
:100D20000FB6F894DEBF0FBECDBF3E8B4F8B698FE1
:100D30007A8F8B8F1F922F938E891F928F938F891B
:100D40001F928F93898D1F928F938A8D1F928F93FD
:100D50008B8D90E08053984F9F938F9380E091E02C
:100D60009F938F931F9284E18F938E010F5F1F4F8C
:100D70001F930F930E94380CC8010E948D0083E5D9
:100D800091E00E948D000FB6F894DEBF0FBECDBF7C
:100D90006B960FB6F894DEBF0FBECDBFDF91CF913B
:100DA0001F910F910895682F88E60E949604089578
:100DB00080E00E94D306089581E00E94D306089542
:100DC0004AE064E088E60E942B04089542E061E076
:100DD00088E60E942B040895482F592F27E066E0EB
:100DE00088E60E9446040895CF93DF9300D000D098
:100DF00000D00F92CDB7DEB786E593E00E94EC06F7
:100E0000A6E5B3E09C91EFE4F3E0892F82958F7023
:100E1000282F220F220F821B880F890F80831196A3
:100E20009C911197892F82958F70282F220F220F66
:100E3000821B880F890F818312969C911297892FAC
:100E400082958F708B70282F220F220F821B880FA4
:100E50009F7B890F828313968C91139783831496BB
:100E60009C911497892F82958F70282F220F220F23
:100E7000821B880F890F848315969C911597892F63
:100E800082958F708770282F220F220F821B880F68
:100E90009F77890F858316969C91892F82958F70F5
:100EA000282F220F220F821B880F9E51890F8683C5
:100EB00087E0DE01119601900D928A95E1F7298174
:100EC0003A814B815C816D817E818F8190E0279694
:100ED0000FB6F894DEBF0FBECDBFDF91CF9108955E
:100EE000AF92BF92CF92DF92EF92FF920F931F9338
:100EF000CF93DF9300D000D000D00F92CDB7DEB7F4
:100F0000A22EB32EC42E5C83D62EE72EF82E80EDB3
:100F10000E94BA03182F811599F011E0812F2796AE
:100F20000FB6F894DEBF0FBECDBFDF91CF911F91FA
:100F30000F91FF90EF90DF90CF90BF90AF9008950A
:100F400086E00E94ED030DECA09E912D1124969554
:100F500096959695892F880F890F880F8A0D0E9484
:100F6000ED03B09E912D1124969596959695892F17
:100F7000880F890F880F8B0D0E94ED03C09E912D65
:100F80001124969596959695892F880F890F880F2D
:100F90008C0D0E94ED038C810E94ED03D09E912D5B
:100FA0001124969596959695892F880F890F880F0D
:100FB0008D0D0E94ED03E09E012D112406950695EE
:100FC0000695802F880F800F880F8E0D0E94ED03ED
:100FD0008F2D90E06AE070E00E94E70B6D5F7F4F1D
:100FE000862F880F860F880F9EE19F0D890F0E9424
:100FF000ED030E94D90392CFCF93DF93CDB7DEB735
:10100000C854D1090FB6F894DEBF0FBECDBF8EE035
:1010100093E00E9458012E964FAD2E974B3008F06A
:101020004AE050E0BE01625B7F4F83E193E00E94A3
:101030001D0CC25BDE4F4881CE54D1404B3008F0CE
:101040004AE050E0BE0162537F4F8DE193E00E9481
:101050001D0CEEE0F3E084E1808381E084838383F0
:101060008DB79EB7815491090FB6F8949EBF0FBEFD
:101070008DBFADB7BEB7119681E401900D928A95F0
:10108000E1F70E945D020FB6F894DEBF0FBECDBF40
:1010900084E690E00E94A10281110BC082E0C85B4F
:1010A000DF4F0FB6F894DEBF0FBECDBFDF91CF91FB
:1010B0000895CE0108960E94CA0281E4FE01389686
:1010C000ADECB2E001900D928A95E1F78091D102EA
:1010D000823011F082E0E3CFC15BDE4F2881CF5434
:1010E000D140EDECF2E03681478160857185538512
:1010F00082850E94700781E0D2CF80E480937C00DB
:1011000010927B0081E880937A0080E00895EAE7FE
:10111000F0E080818F7780830895EAE7F0E08081B6
:10112000806880830895811109C080E480937C00E9
:10113000EAE7F0E080818064808308958E3049F092
:10114000ECE7F0E09081907F90839081892B808301
:10115000EFCF8EE480937C00EBCF80917A00829574
:1011600081700895809178009091790008950E948F
:1011700093080E94AD088115E1F30E94B2089C011A
:10118000EAE7F0E0908190619083C90108952F9281
:101190003F925F926F927F928F929F92AF92BF9297
:1011A000CF92DF92EF92FF920F931F93CF93DF9333
:1011B00000D0CDB7DEB7262E372E2DB73EB73A83F7
:1011C000298310925D04D1012C91233049F121E053
:1011D00020935D0421E031E0EDE5F3E0A82FB92F85
:1011E00001900D9221503040D9F7E981FA810FB674
:1011F000F894FEBF0FBEEDBF0F900F90DF91CF911F
:101200001F910F91FF90EF90DF90CF90BF90AF9024
:101210009F908F907F906F905F903F902F90089558
:10122000F10121812F3F09F44EC0D10112969C900B
:10123000B92DB8707B2EF101438184806B2E65E05F
:1012400070E093FE03C0658066E070E0042F10E05C
:1012500098012F5F3F4FADB7BEB7A21BB30B0FB6C0
:10126000F894BEBF0FBEADBFEDB7FEB731967F019C
:101270004115E9F05B01F101E60FF71F97015524D5
:101280005A94540EC52CD12CA1014F5F5F4F450DD0
:10129000511D460F571F6191D9016D939D01E417B0
:1012A000F507C9F7B6016F5F7F4F6A0D7B1DF70128
:1012B000E00FF11F1082F7012081243541F02BE06F
:1012C00020935D0487CF22E020935D0483CF292DF6
:1012D0002770213021F02CE020935D047BCF711426
:1012E00011F0660D711DF101E60FF71F2081620FED
:1012F000711DFB0131968A94582D521B8216A1F064
:10130000E20DF31D2EE533E0D1011296A60FB71FB3
:101310004FEF450FBD01640F711D4191D9014D93F0
:101320009D01E617F707C9F750935D0353CF8F93DD
:1013300081E0809381048F9118951F920F920FB6D0
:101340000F9211242F933F934F935F936F937F934B
:101350008F939F93AF93BF93EF93FF9381E080931D
:10136000800480918204811589F0FF91EF91BF91F3
:10137000AF919F918F917F916F915F914F913F912D
:101380002F910F900FBE0F901F90189581E08093C2
:1013900082040E945A06E9CF1F920F920FB60F9255
:1013A00011242F933F934F935F936F937F938F936A
:1013B0009F93AF93BF93EF93FF93109282040E9489
:1013C0006806FF91EF91BF91AF919F918F917F91AF
:1013D0006F915F914F913F912F910F900FBE0F90A2
:1013E0001F90189580E00E94F50480E00E94FC04A4
:1013F00081E00E944E0580E00E94550580E00E9439
:10140000AA038FE19EE40197F1F700C0000085B7C1
:10141000806685BF8F7D85BF83B7817F846083BFF2
:1014200083B7816083BF7894889508950E948D0862
:101430008EE00E94B7088EE00E94B7088EE00E94FE
:10144000B70890938705809386050E94870880914E
:101450008605909187050895CDB7DEB7C151D1407B
:101460000FB6F894DEBF0FBECDBF81E00E94AA0385
:101470008FE19EE40197F1F700C000000E9443064F
:101480000E9479008AE191E00E948D000E94B103E0
:101490000E9494030E947D080E9446060E94500606
:1014A0000E9471060E94E0060E94E6060E94DC0689
:1014B0000E94D8060E942A030F2EFFE5CF2EF4E0EB
:1014C000DF2EF02D0DE714E0F60111921192E017D6
:1014D000F107D9F7CE010F960E949F0583E091E0B6
:1014E000FE013F96A3E8B4E001900D920197E1F769
:1014F0008DB79EB7835091400FB6F8949EBF0FBE34
:101500008DBFADB7BEB7119683E091E0E3E8F4E09C
:1015100001900D920197E1F70E94FC0780935E0411
:101520000FB6F894DEBF0FBECDBF0E94F406288729
:1015300039874A875B876C877D878E870E948906FB
:1015400080915E040F2EF5E0EF2EF12CF02D81300E
:1015500021F181E00E94A3038FE19EE40197F1F75E
:1015600000C0000080E00E94A3039FE722E382E026
:10157000915020408040E1F700C0000091E0E91A5E
:10158000F108E114F10429F70E94160A0F2EFFE575
:10159000EF2EF4E0FF2EF02D25C00F2EF5E0EF2EFC
:1015A000F12CF02D81E00E94A3039FE722E382E06B
:1015B000915020408040E1F700C0000080E00E9490
:1015C000A3038FE19EE40197F1F700C0000091E0D2
:1015D000E91AF108E114F10429F7D6CF80918104CA
:1015E00081111CC080E00E94FC0480E00E94F50490
:1015F0000E94F209F89480918004811579F3109289
:101600008004E0917F04F0E0EE0FFF1FE15AFB4FF2
:1016100080819181019691838083E0CF1092810433
:1016200080917F048F5F80937F040E94DC060E947C
:10163000D8060E94DC060E94D80680917F048F3075
:1016400088F210927F0481E00E94AA030E942A037C
:1016500081E00E94550580E00E944E058FE19EE4E6
:101660000197F1F700C00000CE010F960E949F0580
:1016700083E091E0FE013F96A3E8B4E001900D9273
:101680000197E1F780915E04823009F46EC00E94F8
:10169000160A88E895E00E9458010E94160AB82EA2
:1016A000A92E0E94F40629833A834B835C836D83C1
:1016B0007E838F83FF92EF92AF92BF9200D000D0D3
:1016C00000D00F92ADB7BEB7119687E0FE013196FC
:1016D00001900D928A95E1F78DB79EB783509140A6
:1016E0000FB6F8949EBF0FBE8DBFADB7BEB71196B3
:1016F00083E091E0E3E8F4E001900D920197E1F7D7
:10170000CE010F960E94690181E4FE013F96A8E890
:10171000B5E001900D928A95E1F78DB79EB7825F93
:101720009E4F0FB6F894DEBF0FBECDBF8154910916
:101730000FB6F8949EBF0FBE8DBFADB7BEB7119662
:1017400081E4E8E8F5E001900D928A95E1F70E94C6
:101750005D020FB6F894DEBF0FBECDBFF601119249
:101760001192E017F107D9F73DCF8DB79EB783509F
:1017700091400FB6F8949EBF0FBE8DBFADB7BEB7F8
:10178000119683E091E0E3E8F4E001900D92019777
:10179000E1F70E94FC0780935E040FB6F894DEBF69
:1017A0000FBECDBF74CFAA1BBB1B51E107C0AA1F40
:1017B000BB1FA617B70710F0A61BB70B881F991FF2
:1017C0005A95A9F780959095BC01CD01089597FB96
:1017D000072E16F4009407D077FD09D00E94D30B92
:1017E00007FC05D03EF4909581959F4F0895709524
:1017F00061957F4F0895A1E21A2EAA1BBB1BFD0124
:101800000DC0AA1FBB1FEE1FFF1FA217B307E407DF
:10181000F50720F0A21BB30BE40BF50B661F771F37
:10182000881F991F1A9469F7609570958095909517
:101830009B01AC01BD01CF010895FB01DC0102C099
:1018400001900D9241505040D8F70895DC0101C03D
:101850006D9341505040E0F70895FC018191861747
:1018600021F08823D9F7992708953197CF0108955A
:10187000AEE0B0E0EEE3FCE00C94080F0D891E89A9
:1018800086E08C831A8309838F89988D813020E8C4
:10189000920710F080E090E801979E838D83AE015F
:1018A000455E5F4F698D7A8DCE0101960E946A0C6C
:1018B0004D815E8157FD0AC02F813885421753073D
:1018C0000CF49A01020F131FF80110822E96E4E027
:1018D0000C94240FABE0B0E0E0E7FCE00C94FB0ECE
:1018E0006C017B018A01FC0117821682838181FFD2
:1018F000DAC19AE0492EF6012381F70123FD859193
:1019000023FF81917F01811509F41FC1853239F4CC
:1019100023FD959123FF91917F01953229F4B60122
:1019200090E00E946C0EE7CF30E0612C512C712CBE
:10193000F0E27F1640F59B32D9F058F49032D1F0A6
:101940009332F1F09E3299F576FCFFC0689476F8F8
:1019500006C09D3291F09033C1F4689470F8F7019D
:1019600023FD959123FF91917F019111E1CF29C032
:10197000689471F8689472F8F2CF689473F8EFCFB6
:10198000689474F8ECCF77FC1CC080ED890F8A3026
:10199000C8F676FE05C0649C800D1124682EDFCF4A
:1019A000549C800D1124582E689475F8D8CF9C361D
:1019B00019F4689477F8D3CF9C3409F44BC0983667
:1019C00071F2892F8F7D8554833008F445C093369A
:1019D00009F466C0933709F469C0933509F475C0FA
:1019E000943619F0993609F09FC0F80177FE95C03A
:1019F00061917191819191918F01272D2F76722E96
:101A000097FF09C090958095709561957F4F8F4F96
:101A10009F4F689477F82AE030E0AE014F5F5F4F48
:101A20005A010E949C0E8A19A82E76FEC5C0872DE9
:101A30008E7FA61408F0BFC074FE12C172FC06C1EE
:101A4000F72DFE7E7F2EB62C872D8678811509F422
:101A5000C0C001C131E083CF3115F9F0085F1F4FDD
:101A60008FE3898388248394912CAE014F5F5F4F6D
:101A70005A01E89477F873FC03C085149104B0F11F
:101A800081149104D1F5511409F435CFB60180E2E7
:101A900090E00E946C0E5A94F6CF0C5F1F4FE0CF7F
:101AA000F801808189830E5F1F4FDCCFF801A19080
:101AB000B1908F01662D70E076FC02C06FEF7FEF72
:101AC000C5010E94610E4C01D4CFF801A190B190E4
:101AD0008F01662D70E076FC02C06FEF7FEFC501CD
:101AE0000E94560E4C01689477F8C5CFB60180E28B
:101AF00090E00E946C0E5A94C0CFF50177FC85915E
:101B000077FE81915F01B60190E00E946C0E51104A
:101B10005A94F1E08F1A9108B3CF61917191072E19
:101B2000000C880B990B68CF372CE89434F82AE026
:101B300030E0953739F1572D597F352E903799F090
:101B400058F49835A9F09F36D9F0F601868197812F
:101B50002B96E1E10C94170F9837B9F774FC05C088
:101B600020E130E00FC0689434F8689432F8F8CF80
:101B700074FE03C0872D8660382E20E132E002C05B
:101B800028E030E0F80137FE11C061917191819138
:101B900091918F01FE0131965F01AF010E949C0E71
:101BA0008A19A82E732CE89477F83FCF6191719130
:101BB00080E090E0EECF782EBA2C74FE45CFFE0187
:101BC000EA0DF11D8081803309F043C0272D297E65
:101BD000722E73FC0EC070FE4FC06A2CB51418F440
:101BE000650C6B18B52C852D8B195B1408F480E0FF
:101BF000B80EB51408F042C05B1874FE41C0B601BF
:101C000080E390E00E946C0E72FE09C088E590E0CF
:101C100071FC02C088E790E0B6010E946C0EA61429
:101C2000D8F1AA94B12C4FEFA41AB40ACE010196B0
:101C30003C01A80EB91EF50182915F01B60190E04A
:101C40000E946C0E6A147B04B1F71DCFB62C782E5F
:101C5000B6CF72FC02C0B394BCCFB394B394B9CFE7
:101C6000B62C782EF1CEB60180E290E00E946C0E88
:101C700033943514C0F3B7CF3B2CFBCF512CBDCFE1
:101C8000872D8678811559F280E271FC8BE277FC12
:101C90008DE2B60190E0C1CFB60180E390E00E94F2
:101CA0006C0E6A94BCCF8FEF9FEF52CFFC01059072
:101CB000615070400110D8F7809590958E0F9F1F4E
:101CC0000895FC016150704001900110D8F7809593
:101CD00090958E0F9F1F08950F931F93CF93DF93BF
:101CE000182F092FEB018B8181FD09C01FEF0FEF2A
:101CF000812F902FDF91CF911F910F91089582FF37
:101D000014C02E813F818C819D81281739073CF4B6
:101D1000E881F981CF0101969983888310838E81B0
:101D20009F8101969F838E83E3CFE885F985812F7C
:101D30000995892BA1F3DACFFA01AA27283051F1AE
:101D4000203181F1E8946F936E7F6E5F7F4F8F4FEC
:101D50009F4FAF4FB1E03ED0B4E03CD0670F781F4B
:101D6000891F9A1FA11D680F791F8A1F911DA11D30
:101D70006A0F711D811D911DA11D20D009F4689469
:101D80003F912AE0269F11243019305D3193DEF611
:101D9000CF010895462F4770405D4193B3E00FD0C7
:101DA000C9F7F6CF462F4F70405D4A3318F0495DB2
:101DB00031FD4052419302D0A9F7EACFB4E0A69595
:101DC0009795879577956795BA95C9F700976105B7
:101DD000710508959B01AC010A2E0694579547950D
:101DE00037952795BA95C9F7620F731F841F951F02
:101DF000A01D08952F923F924F925F926F927F9213
:101E00008F929F92AF92BF92CF92DF92EF92FF920A
:101E10000F931F93CF93DF93CDB7DEB7CA1BDB0BB6
:101E20000FB6F894DEBF0FBECDBF09942A8839885B
:101E300048885F846E847D848C849B84AA84B98462
:101E4000C884DF80EE80FD800C811B81AA81B9816E
:101E5000CE0FD11D0FB6F894DEBF0FBECDBFED0182
:061E60000895F894FFCF85
:101E660025752F253032752F253032752025753A88
:101E7600253032753A25303275000D0A0D0A202EAE
:101E86002E2E2E2E2E2E2E2E2E2E2E2E2E2E2E2E6C
:101E96002E2E205354415254494E4721202E2E2E89
:101EA6002E2E2E2E2E2E2E2E2E2E2E2E2E2E2E2E4C
:061EB600200D0A0D0A00D8
:00000001FF
