:100000000C945A000C9477000C9409010C9477001E
:100010000C9477000C9477000C9477000C94770084
:100020000C9477000C9477000C9477000C94770074
:100030000C9477000C9477000C9477000C94770064
:100040000C943E010C9477000C9477000C9477008C
:100050000C9477000C9477000C9477000C94770044
:100060000C9477000C9477000C9477000C94770034
:100070000C9477000C9477000C9477000C94770024
:100080000C9477000C9477000C9477000C94770014
:100090000C9477000C9477000C9477000C94770004
:1000A0000C9477000C9477000C9477000C947700F4
:1000B0000C94770011241FBECFEFD8E0DEBFCDBF78
:1000C00011E0A0E0B1E0EEEFFDE002C005900D927E
:1000D000AE33B107D9F721E0AEE3B1E001C01D9224
:1000E000AD36B207E1F70E9448010C94FD060C946E
:1000F00000001092C5008CE08093C40088E18093DA
:10010000C10086E08093C2000895E0ECF0E09081A9
:1001100095FFFDCF8093C6000895CF93DF93C82F3E
:10012000D92F8881811531F021960E94850089910F
:100130008111FBCFDF91CF9108951F93CF93DF9370
:10014000C82F162FD72F84E091E00E948D001092C7
:100150004601E6E4F1E040E050E0AC2FB0E09D0164
:10016000042E02C0359527950A94E2F721703327B3
:10017000205D3F4F22934F5F5F4F4830510579F725
:100180008EE391E00E948D0083E091E00E948D005B
:10019000812F9D2F0E948D0082E291E00E948D00B0
:1001A000DF91CF911F9108951F93CF93DF93182F65
:1001B000D62FC72F84E091E00E948D001F921F93DD
:1001C00080E091E09F938F931F9280E18F9387E46B
:1001D00091E09F938F930E94040487E491E00E9432
:1001E0008D0086E091E00E948D008D2F9C2F0E9453
:1001F0008D0082E291E00E948D008DB79EB7089637
:100200000FB6F8949EBF0FBE8DBFDF91CF911F91A7
:1002100008951F920F920FB60F9211242F933F93C0
:100220004F935F936F937F938F939F93AF93BF93FE
:10023000EF93FF9380915701811589F0FF91EF9122
:10024000BF91AF919F918F917F916F915F914F91EE
:100250003F912F910F900FBE0F901F90189588E03F
:1002600091E00E948D008FEC97E00197F1F700C0BC
:10027000000081E08093570116BCE0CF1F921FB6AB
:100280001F921124109257011F901FBE1F901895A6
:1002900080E00E94B6010E9479008FE19EE4019700
:1002A000F1F700C0000080E191E00E948D008FE135
:1002B0009EE40197F1F700C0000081E00E941E0259
:1002C00080E00E94BD010E9425020E9428020E9437
:1002D00032020E94C401E8E5F1E021E0208336E02B
:1002E00031834EE0428362E164837CE0758388E180
:1002F000868354E053830E9450030E943A020E9476
:1003000079020E948D0289E191E00E948D000E9495
:10031000710265E271E00E949D000E9475026CE22C
:1003200071E00E949D000E94D802209358013093F2
:10033000590140935A0150935B0160935C017093A3
:100340005D0180935E0167E371E0832F0E94D4001A
:1003500089E191E00E948D009FEF29E688E19150AC
:1003600020408040E1F700C00000CDCF569A8115B3
:1003700011F05E9A08955E9808953B9A811511F0E8
:10038000439A0895439808951092B9008CE08093A1
:10039000B80084E08093BC00089594EA9093BC0078
:1003A000ECEBF0E090819115ECF78093BB0084E8D2
:1003B0008093BC00ECEBF0E080818115ECF790912C
:1003C000B900987F983131F081E0903409F00895B8
:1003D00080E0089580E0089584E98093BC00ECEB10
:1003E000F0E0808184FFFDCF089584EC8093BC0011
:1003F000ECEBF0E080818115ECF78091BB00089573
:100400008093BB0084E88093BC00ECEBF0E080813B
:100410008115ECF79091B900987F81E0983209F04E
:10042000089580E0089584E88093BC00ECEBF0E050
:1004300080818115ECF78091BB000895559A811554
:1004400011F05D9A08955D98089553985B9808950A
:10045000E9E6F0E080818860808380818B7F808303
:10046000E99A089514BC83E085BD81E080936E0015
:1004700016BC0895CF9380ED0E94CD01C82F811541
:1004800021F0C1E08C2FCF91089583E10E940002FA
:1004900080E80E94000280E80E94000280E80E943A
:1004A00000020E94EC01EECFCF93C82F80ED0E9496
:1004B000CD01811521F0C1E08C2FCF9108958C2FB3
:1004C0000E94000281ED0E94CD01811106C00E94B0
:1004D0001302C82F0E94EC01EFCF0E94EC01C1E093
:1004E000EBCF80E00E945402089581E00E94540204
:1004F0000895CF9380ED0E94CD01C82F811521F082
:10050000C1E08C2FCF91089584E00E94000280E02A
:100510000E9400020E94EC01F4CFCF9380ED0E9474
:10052000CD01C82F811521F0C1E08C2FCF91089506
:1005300081E00E9400028AE00E9400020E94EC0119
:10054000F4CFCF92DF92EF92FF921F93CF93DF937E
:10055000E82EF92E80ED0E94CD0111E0811549F0C1
:10056000812FDF91CF911F91FF90EF90DF90CF907F
:10057000089586E00E94000281ED0E94CD01182FAF
:10058000E701670186E0C80ED11C11110DC00E9461
:10059000F5018993CC15DD05D1F70E941302F7010F
:1005A00086830E94EC01DCCF0E94EC0111E0D8CFE1
:1005B000CF93DF9300D000D000D00F92CDB7DEB73D
:1005C00086E691E00E94A102A6E6B1E09C91EFE5EB
:1005D000F1E0892F82958F70282F220F220F821B26
:1005E000880F890F808311969C911197892F82958E
:1005F0008F70282F220F220F821B880F890F818373
:1006000012969C911297892F8B7F282F220F220FF1
:10061000821B880F81548923828313968C911397B0
:10062000838314969C911497892F82958F70282F1D
:10063000220F220F821B880F890F848315969C91AD
:100640001597892F877F282F220F220F821B880F53
:1006500081588923858316969C91892F82958F7066
:10066000282F220F220F821B880F9E51890F86830D
:1006700087E0DE01119601900D928A95E1F72981BC
:100680003A814B815C816D817E818F8190E02796DC
:100690000FB6F894DEBF0FBECDBFDF91CF910895A6
:1006A000AF92BF92CF92DF92EF92FF920F931F9380
:1006B000CF93DF9300D000D000D00F92CDB7DEB73C
:1006C000A22EB32EC42E5C83D62EE72EF82E80EDFC
:1006D0000E94CD01182F811599F011E0812F2796E6
:1006E0000FB6F894DEBF0FBECDBFDF91CF911F9143
:1006F0000F91FF90EF90DF90CF90BF90AF90089553
:1007000086E00E9400020DECA09E912D112496958A
:1007100096959695892F880F890F880F8A0D0E94CC
:100720000002B09E912D1124969596959695892F4D
:10073000880F890F880F8B0D0E940002C09E912D9B
:100740001124969596959695892F880F890F880F75
:100750008C0D0E9400028C810E940002D09E912D7F
:100760001124969596959695892F880F890F880F55
:100770008D0D0E940002E09E012D11240695069524
:100780000695802F880F800F880F8E0D0E94000223
:100790008F2D90E06AE070E00E94DC036D5F7F4F78
:1007A000862F880F860F880F9EE19F0D890F0E946C
:1007B00000020E94EC0192CF97FB072E16F40094E2
:1007C00007D077FD09D00E94F00307FC05D03EF466
:1007D000909581959F4F0895709561957F4F0895ED
:1007E000AA1BBB1B51E107C0AA1FBB1FA617B70757
:1007F00010F0A61BB70B881F991F5A95A9F7809573
:100800009095BC01CD010895AEE0B0E0EAE0F4E0DF
:100810000C94D4060D891E8986E08C831A83098383
:100820008F89988D813020E8920710F080E090E861
:1008300001979E838D83AE01455E5F4F698D7A8DF2
:10084000CE0101960E9436044D815E8157FD0AC09B
:100850002F813885421753070CF49A01020F131F9A
:10086000F80110822E96E4E00C94F006ABE0B0E0C4
:10087000ECE3F4E00C94C7066C017B018A01FC01F7
:1008800017821682838181FFDAC19AE0492EF60130
:100890002381F70123FD859123FF81917F0181153C
:1008A00009F41FC1853239F423FD959123FF9191FD
:1008B0007F01953229F4B60190E00E943806E7CF17
:1008C00030E0612C512C712CF0E27F1640F59B3208
:1008D000D9F058F49032D1F09332F1F09E3299F57C
:1008E00076FCFFC0689476F806C09D3291F0903394
:1008F000C1F4689470F8F70123FD959123FF91915D
:100900007F019111E1CF29C0689471F8689472F861
:10091000F2CF689473F8EFCF689474F8ECCF77FC5B
:100920001CC080ED890F8A30C8F676FE05C0649C35
:10093000800D1124682EDFCF549C800D1124582E79
:10094000689475F8D8CF9C3619F4689477F8D3CFAB
:100950009C3409F44BC0983671F2892F8F7D8554F1
:10096000833008F445C0933609F466C0933709F420
:1009700069C0933509F475C0943619F0993609F0B9
:100980009FC0F80177FE95C061917191819191911D
:100990008F01272D2F76722E97FF09C09095809595
:1009A000709561957F4F8F4F9F4F689477F82AE03D
:1009B00030E0AE014F5F5F4F5A010E9468068A190E
:1009C000A82E76FEC5C0872D8E7FA61408F0BFC066
:1009D00074FE12C172FC06C1F72DFE7E7F2EB62C6E
:1009E000872D8678811509F4C0C001C131E083CF1D
:1009F0003115F9F0085F1F4F8FE3898388248394B2
:100A0000912CAE014F5F5F4F5A01E89477F873FC69
:100A100003C085149104B0F181149104D1F55114EF
:100A200009F435CFB60180E290E00E9438065A946E
:100A3000F6CF0C5F1F4FE0CFF801808189830E5FF6
:100A40001F4FDCCFF801A190B1908F01662D70E0AF
:100A500076FC02C06FEF7FEFC5010E942D064C01AE
:100A6000D4CFF801A190B1908F01662D70E076FC93
:100A700002C06FEF7FEFC5010E9422064C0168940F
:100A800077F8C5CFB60180E290E00E9438065A940C
:100A9000C0CFF50177FC859177FE81915F01B601AA
:100AA00090E00E94380651105A94F1E08F1A910894
:100AB000B3CF61917191072E000C880B990B68CF11
:100AC000372CE89434F82AE030E0953739F1572D87
:100AD000597F352E903799F058F49835A9F09F3604
:100AE000D9F0F601868197812B96E1E10C94E3061B
:100AF0009837B9F774FC05C020E130E00FC0689466
:100B000034F8689432F8F8CF74FE03C0872D8660FD
:100B1000382E20E132E002C028E030E0F80137FE54
:100B200011C061917191819191918F01FE01319676
:100B30005F01AF010E9468068A19A82E732CE89401
:100B400077F83FCF6191719180E090E0EECF782E01
:100B5000BA2C74FE45CFFE01EA0DF11D8081803371
:100B600009F043C0272D297E722E73FC0EC070FE43
:100B70004FC06A2CB51418F4650C6B18B52C852D74
:100B80008B195B1408F480E0B80EB51408F042C06D
:100B90005B1874FE41C0B60180E390E00E94380605
:100BA00072FE09C088E590E071FC02C088E790E021
:100BB000B6010E943806A614D8F1AA94B12C4FEFC2
:100BC000A41AB40ACE0101963C01A80EB91EF50183
:100BD00082915F01B60190E00E9438066A147B049E
:100BE000B1F71DCFB62C782EB6CF72FC02C0B394ED
:100BF000BCCFB394B394B9CFB62C782EF1CEB60156
:100C000080E290E00E94380633943514C0F3B7CFE9
:100C10003B2CFBCF512CBDCF872D8678811559F207
:100C200080E271FC8BE277FC8DE2B60190E0C1CFEF
:100C3000B60180E390E00E9438066A94BCCF8FEF43
:100C40009FEF52CFFC010590615070400110D8F722
:100C5000809590958E0F9F1F0895FC016150704004
:100C600001900110D8F7809590958E0F9F1F0895E1
:100C70000F931F93CF93DF93182F092FEB018B81D5
:100C800081FD09C01FEF0FEF812F902FDF91CF91D2
:100C90001F910F91089582FF14C02E813F818C8196
:100CA0009D81281739073CF4E881F981CF0101962D
:100CB0009983888310838E819F8101969F838E8381
:100CC000E3CFE885F985812F0995892BA1F3DACF48
:100CD000FA01AA27283051F1203181F1E8946F936D
:100CE0006E7F6E5F7F4F8F4F9F4FAF4FB1E03ED013
:100CF000B4E03CD0670F781F891F9A1FA11D680FB1
:100D0000791F8A1F911DA11D6A0F711D811D911DE3
:100D1000A11D20D009F468943F912AE0269F112458
:100D20003019305D3193DEF6CF010895462F4770BC
:100D3000405D4193B3E00FD0C9F7F6CF462F4F7017
:100D4000405D4A3318F0495D31FD4052419302D075
:100D5000A9F7EACFB4E0A69597958795779567951B
:100D6000BA95C9F700976105710508959B01AC011B
:100D70000A2E06945795479537952795BA95C9F742
:100D8000620F731F841F951FA01D08952F923F921D
:100D90004F925F926F927F928F929F92AF92BF928B
:100DA000CF92DF92EF92FF920F931F93CF93DF9337
:100DB000CDB7DEB7CA1BDB0B0FB6F894DEBF0FBE94
:100DC000CDBF09942A88398848885F846E847D84E1
:100DD0008C849B84AA84B984C884DF80EE80FD80E3
:100DE0000C811B81AA81B981CE0FD11D0FB6F89459
:0E0DF000DEBF0FBECDBFED010895F894FFCF1A
:100DFE00257500202020200062756D70210A0D00DF
:100E0E0048656C6C6F210A0D002D2D2D2D2D2D2D6D
:100E1E002D2D0D0A0053544154555300494E54453F
:0E0E2E00525255505453004D696E7574650054
:00000001FF
